:100000000C9494000C946B070C94B1000C94B10008
:100010000C94B1000C9450080C94B1000C94B100F5
:100020000C94B1000C94B1000C94B1000C9496089F
:100030000C94B1000C94B1000C94A3070C94B10083
:100040000C94B1000C94B1000C94B1000C94B1006C
:100050000C94B1000C94B1000C94B1000C94B1005C
:100060000C94B1000C94B10057454C434F4D4500E2
:100070005355434345535346554C4C59004944202E
:10008000484153205341564544004E45572049446A
:100090003A0046554C4C20535441434B0045525274
:1000A0004F520050415353204348414E474544006E
:1000B0004E4557205041535320414741494E004E31
:1000C00045572050415353005741524E494E470027
:1000D00057524F4E472050415353574F52440057A9
:1000E000524F4E472050415353574F52440057529E
:1000F0004F4E472050415353574F524400454E54A2
:1001000045522050415353574F52440046554C4C92
:10011000205352414D0057524F4E472043415244C5
:100120000048454C4C4F000011241FBECFEFD8E0D3
:10013000DEBFCDBF11E0A0E0B1E0E0E8FBE102C02E
:1001400005900D92A431B107D9F721E0A4E1B1E007
:1001500001C01D92AE32B207E1F70E94E9040C948F
:10016000BE0D0C94000020E030E08EEF15C08BB97E
:1001700095E09A95F1F7000099B1907F903F41F09A
:1001800091E090931F012093210180932401089511
:10019000880F8F5F2F5F3F4F2430310544F3089560
:1001A00020E030E090E10DC089B1892339F42F5F60
:1001B0002093230181E0809322010895990F2F5FFE
:1001C0003F4F2430310584F308951092220110929C
:1001D0001F0102C00E94B30080911F018823D1F348
:1001E000809120018130B1F10E94D0002FEF83EC8B
:1001F00099E0215080409040E1F700C000000E944B
:10020000D00080912201811103C010921F01E4CF20
:10021000409123018FEF840F833058F480912101A6
:1002200090E09C01220F331F280F391F240F311D2E
:1002300013C0443071F4842F90E09C01220F331FCF
:10024000220F331F280F391F80912101280F311DE4
:1002500003C0089523E630E0822F932F08959DB3C5
:1002600021E030E0082E02C0220F331F0A94E2F78B
:10027000292B2DBB81110EC0E9E6F0E02081962FDD
:100280009695892F90E0880F991F6170682B622BDB
:10029000608316C0E9E6F0E02081862F869590E025
:1002A000880F991F880F991F880F991F462F41703B
:1002B00050E0440F551F440F551F482B422B4083DD
:1002C000789408959DB321E030E002C0220F331FDF
:1002D0008A95E2F7209529232DBB0895E8E6F0E002
:1002E000908121E030E0082E02C0220F331F0A94D3
:1002F000E2F7292B208381110DC0EBE6F0E090811D
:1003000021E030E0062E02C0220F331F0A94E2F7EC
:10031000292B2083813069F4ECE6F0E0908121E024
:1003200030E0062E02C0220F331F0A94E2F7292B79
:100330002083823061F4EDE6F0E0208181E090E0FE
:1003400002C0880F991F6A95E2F7822B8083789408
:10035000089581110EC0EBE6F0E0908121E030E0DD
:10036000062E02C0220F331F0A94E2F7209529239C
:100370002083813071F4ECE6F0E0908121E030E000
:10038000062E02C0220F331F0A94E2F7209529237C
:100390002083823069F4EDE6F0E0208181E090E096
:1003A00002C0880F991F6A95E2F7809582238083A7
:1003B000089588E08093B80081E08093B90084E0DC
:1003C0008093BC00089584EA8093BC008091BC00B7
:1003D0008823E4F7089584E98093BC00089580930E
:1003E000BB0084E88093BC008091BC008823E4F7C4
:1003F00008951F93CF93DF93C82FD82FD07FD86055
:100400008D2F0E94EF018D2F0E94EF011D2F1C7F69
:10041000812F0E94EF01812F84600E94EF018D2FB8
:100420000E94EF018FE891E00197F1F700C0000012
:1004300020E1C29FC0011124C82FC8608C2F0E94E8
:10044000EF018C2F8E7F0E94EF01DC2FDC7F8D2F40
:100450000E94EF018D2F84600E94EF018C2F887F16
:100460000E94EF01DF91CF911F9108952FE788E35C
:1004700091E0215080409040E1F700C0000080E30F
:100480000E94F9018FE097E20197F1F700C00000A8
:1004900080E30E94F9018BE291E00197F1F700C03F
:1004A000000082E30E94F901089581E00E94F901B1
:1004B0008FE99FE00197F1F700C000000895CF9306
:1004C000DF93D62FC42FE9E0F1E03197F1F700C0B8
:1004D00000000E94F90189E091E00197F1F700C066
:1004E00000000E945502E5EDF4E13197F1F700C0FC
:1004F00000008D2F0E94F90189E091E00197F1F74A
:1005000000C000008C2F0E94F901DF91CF91089567
:1005100088E20E94F9010E94550288E00E94F901D8
:1005200084E00E94F90108950E94F90185E88A9506
:10053000F1F7000008950F931F93CF93082F182F02
:10054000107FC12FC8608C2F0E94EF01812F89601E
:100550000E94EF011C2F1D7F812F81600E94EF01FF
:10056000812F85600E94EF018C2F81600E94EF0136
:100570008FE891E00197F1F700C0000090E1099F3A
:1005800080011124C02FC8608C2F0E94EF01802FA2
:1005900089600E94EF011C2F1D7F812F81600E94C6
:1005A000EF01812F85600E94EF018C2F897F816090
:1005B0000E94EF01CF911F910F91089582958F7046
:1005C0008A3010F4805D0895895C08958F708A30B8
:1005D00010F4805D0895895C0895F999FECF92BD6D
:1005E00081BD60BD8FB384608FBB8FB382608FBBD2
:1005F0000895F999FECF92BD81BD8FB381608FBB05
:1006000080B50895CF93DF93FC0103C00E949B0245
:10061000FE01EF01219684918111F8CFDF91CF91F6
:100620000895DC0190E00DC0292F30E0FD01E20FBC
:10063000F31F5081FB01E20FF31F2081521305C00D
:100640009F5F941788F381E0089580E008950F93E9
:100650001F93CF93DF93CDB7DEB76A970FB6F894A9
:10066000DEBF0FBECDBF8EE0E6E0F1E0DE01119609
:1006700001900D928A95E1F70E94550280E80E9450
:1006800094028FEB90E00E94020380EC0E9494029F
:1006900010E016C00E94E500843109F47FC0EFE04D
:1006A000F0E0EC0FFD1FE10FF11DA1E0B0E0AC0F99
:1006B000BD1FA80FB11D8C9180830E949B021F5FFC
:1006C000163040F32FEF81EE94E0215080409040AF
:1006D000E1F700C000000E94550280E80E949402E9
:1006E00080EB90E00E94020380EC0E94940210E0F4
:1006F00016C00E94E500843109F452C0E5E1F0E043
:10070000EC0FFD1FE10FF11DA1E0B0E0AC0FBD1F2C
:10071000A80FB11D8C9180830E949B021F5F163031
:1007200040F30E94550280E80E94940246E0BE0118
:10073000615F7F4FCE0145960E941103082F8130E3
:10074000F1F483EA90E00E94020310E00CC0812FD4
:1007500090E0E5E1F0E0EC0FFD1FE80FF91F60818C
:100760000E94ED021F5F163090F32FEF87EA91E6AB
:10077000215080409040E1F700C0000012C08DE998
:1007800090E00E9402032FEF87EA91E6215080401B
:100790009040E1F700C0000000E003C000E001C0AD
:1007A00000E0802F6A960FB6F894DEBF0FBECDBF73
:1007B000DF91CF911F910F91089588B1846088B91E
:1007C0002FEF80E792E0215080409040E1F700C099
:1007D000000088B18B7F88B908950E94550280E897
:1007E0000E94940288EC90E00E9402030E94DD03C4
:1007F00008959F92AF92BF92CF92DF92EF92FF92B5
:100800000F931F93CF93DF930E94550280E80E94BD
:10081000940261E070E084E090E00E947A0C6C0148
:1008200061E070E084E090E00E947A0C8C0161E06D
:1008300070E080E190E00E947A0C7C01C114D10448
:1008400029F00115110511F0892B29F482E990E0B6
:100850000E9402039EC08AE890E00E94020394C0B6
:10086000B70182E50E94E809C7010E941D0A813094
:1008700009F08AC00E94DD0388E80E949402912C4E
:1008800017C0C92DD0E05701AC0EBD1EF501808107
:100890000E94DE020E949B02F50180810E94E60216
:1008A0000E949B02CC0DDD1DF5018081888393940D
:1008B000F3E0F91530F780EC0E949402AA24A39487
:1008C0002DC02B2D30E0E801C20FD31F8A2D90E000
:1008D000880F991F880F991F0296820F931F0E94FD
:1008E000F9028883B39401C0B12C23E02B1548F79B
:1008F00044E0B801C6010E941103813071F48DE714
:1009000090E00E9402038FEF97EAE1E68150904069
:10091000E040E1F700C000002DC0A39480911D01CC
:100920008A1510F78F5F80931D01C0E014C02C2F33
:1009300030E0F701E20FF31F90911D01892F90E045
:10094000880F991F880F991F02966081820F931F4D
:100950000E94ED02CF5FC43050F380E790E00E9428
:100960000203FFEF27EA81E6F15020408040E1F7E3
:1009700000C00000C7010E942E0DC6010E942E0D6E
:10098000C8010E942E0D05C080912001882309F422
:1009900067CFDF91CF911F910F91FF90EF90DF9084
:1009A000CF90BF90AF909F9008950E94D9010E9470
:1009B000E3018EE40E94EF010E94360240E16FE005
:1009C00088E20E945F0208950E9488020E94EB0163
:1009D00008950E94E40480E80E94940281E291E07C
:1009E0000E94020380E090E00895813D27E0920795
:1009F00010F080ED97E0909389008093880008952F
:100A000085B1826085B988B1826088B988B18E7FEE
:100A100088B963E080E00E942F0180E090E0A4EBC1
:100A2000B2E48093250190932601A0932701B0930F
:100A30002801EFE6F0E080818D7F808310928900AD
:100A400010928800109285001092840081E88093B3
:100A500080008DE0809381000E94670A8FEF90E014
:100A60000E94F50460912501709126018091270173
:100A70009091280120E030E0A9010E94E40B1816B3
:100A80008CF385B18D7F85B910928100109215018C
:100A9000109216011092170110921801109219016C
:100AA00010921A0110921B0110921C010E947F0AE1
:100AB00080E00E94620108950E94550284E80E942D
:100AC000940288E690E00E94020385B1826085B9B5
:100AD00088B1816088B988B18D7F88B963E080E092
:100AE0000E942F0180E090E0A4EBB2E48093250106
:100AF00090932601A0932701B0932801EFE6F0E040
:100B000080818D7F808310928900109288001092DE
:100B100085001092840081E8809380008DE08093AE
:100B200081000E94670A8FEF90E00E94F5046091B7
:100B3000250170912601809127019091280120E0E4
:100B400030E0A9010E94E40B18168CF385B18D7F6B
:100B500085B9109281001092150110921601109221
:100B60001701109218011092190110921A01109297
:100B70001B0110921C010E947F0A80E00E9462010A
:100B80002FEF83E294EF215080409040E1F700C0C6
:100B900000000E94000508950E945C050895EF92F0
:100BA000FF920F931F93CF93DF93CDB7DEB7689774
:100BB0000FB6F894DEBF0FBECDBF0E94DD0380E804
:100BC0008AB98FE78BB969C0BE016F5F7F4F82E53D
:100BD0000E94E809CE0101960E941D0A813009F0A9
:100BE0005CC00E94DD030E94D50420E011C0822F6A
:100BF00090E0E5E1F0E0EC0FFD1FE80FF91FA1E048
:100C0000B0E0AC0FBD1FA80FB91F8C9180832F5F80
:100C1000243068F301E02BC0212F30E00F2EF1E1EA
:100C2000EF2EF12CF02DEC0EFD1EE20EF31E802FA8
:100C300090E0880F991F880F991F0296820F931FCB
:100C40000E94F902F70180831F5F01C010E0143099
:100C500018F344E0BE016F5E7F4FCE0145960E94BF
:100C60001103813019F40E94CC0515C00F5F8091EB
:100C70001D01801758F780E80E94940286E191E0F8
:100C80000E940203FFEF27EA81E6F15020408040F6
:100C9000E1F700C000000E94E4048091200181304F
:100CA00009F492CF68960FB6F894DEBF0FBECDBFA1
:100CB000DF91CF911F910F91FF90EF900895AF9228
:100CC000BF92CF92DF92EF92FF921F93CF93DF9369
:100CD000CDB7DEB72E970FB6F894DEBF0FBECDBFEF
:100CE0008FE08AB90E94D50461E070E086E090E070
:100CF0000E947A0C6C0161E070E086E090E00E9456
:100D00007A0C7C01C114D10411F0892B41F480E8E4
:100D10000E9494028CE091E00E940203CCC08EE01D
:100D2000E6E0F1E0DE01119601900D928A95E1F77F
:100D300010E00AC0812F90E05601A80EB91E0E9453
:100D4000F902F50180831F5F1630A0F30E9455025F
:100D500080E80E9494028DEF90E00E94020380ECF4
:100D60000E94940210E066C00E94E500873109F4F9
:100D700064C0863159F406C0F701E80FF11D1082F6
:100D80008F5F01C080E08630B8F3E0CF8531F9F4A1
:100D900046E0B701C6010E941103813029F40E9488
:100DA000F9030E945502D2CF0E94550280E80E94AA
:100DB00094028EEE90E00E940203FFEF2BE782E99F
:100DC000F15020408040E1F700C00000BFCF8431E7
:100DD00001F546E0B701C6010E941103813031F4EC
:100DE0000E942703813009F0B1CFA2CF0E945502A3
:100DF00080E80E9494028FED90E00E9402039FEF32
:100E0000E7EAF1E69150E040F040E1F700C0000071
:100E10009DCF833609F449C0D701A10FB11DE1E090
:100E2000F0E0EC0FFD1FE80FF11D80818C930E9414
:100E30009B021F5F1A3008F497CF46E0B701C60146
:100E40000E941103813029F40E94CC0510921401F4
:100E50002CC00E94550280E80E94940280ED90E030
:100E60000E9402032FEF83EC99E0215080409040D4
:100E7000E1F700C00000809114018F5F809314019E
:100E8000833079F40E94ED0310C04B990AC0EFEF54
:100E9000F1EE24E0E150F0402040E1F700C0000016
:100EA00055CF80912001882381F3C6010E942E0D29
:100EB000C7010E942E0D2E960FB6F894DEBF0FBE0E
:100EC000CDBFDF91CF911F91FF90EF90DF90CF903A
:100ED000BF90AF9008951F920F920FB60F921124FA
:100EE0002F933F934F935F936F937F938F939F9332
:100EF000AF93BF93EF93FF9320E030E040E85FE3D0
:100F0000609115017091160180911701909118015F
:100F10000E94860A60931501709316018093170151
:100F200090931801FF91EF91BF91AF919F918F9195
:100F30007F916F915F914F913F912F910F900FBED5
:100F40000F901F9018951F920F920FB60F921124B9
:100F50008F929F92AF92BF92CF92DF92EF92FF92C9
:100F60002F933F934F935F936F937F938F939F93B1
:100F7000AF93BF93EF93FF93809129018F5F80938D
:100F80002901843108F45BC020E030E84BE354E4ED
:100F900060911501709116018091170190911801CF
:100FA0000E94F20A20E030E044EB53E40E94E90B97
:100FB0009B01AC0160E070E084EB92E40E94850A42
:100FC0006B017C01609325017093260180932701BA
:100FD0009093280120E030E040E251E40E94E90BC8
:100FE0004B015C012091190130911A0140911B01C4
:100FF00050911C01C701B6010E94850A2AE037ED15
:1010000043EA5CE30E94F20A2AE037ED43E25CE344
:101010000E94E90B9B01AC01C501B4010E94860A44
:101020000E94640BC0921901D0921A01E0921B0138
:10103000F0921C01CB010E94F50410922901FF914E
:10104000EF91BF91AF919F918F917F916F915F9140
:101050004F913F912F91FF90EF90DF90CF90BF90F5
:10106000AF909F908F900F900FBE0F901F9018958C
:1010700010921E01EFE6F0E0808182608083789418
:1010800081E19AE790938900809388001092800014
:101090008CE0809381001092850010928400089566
:1010A0001F920F920FB60F9211242F933F934F93DD
:1010B0005F936F937F938F939F93AF93BF93EF93C0
:1010C000FF9363E082E00E94A901109220010E9438
:1010D00038082FEF81EE94E0215080409040E1F7F6
:1010E00000C000000E945F0681E080932001809391
:1010F0001F0110921E010E94E4048FE78BB963E088
:1011000082E00E946E010E94CF05FF91EF91BF9196
:10111000AF919F918F917F916F915F914F913F918F
:101120002F910F900FBE0F901F9018951F920F9246
:101130000FB60F9211248F93EF93FF9380911E01AE
:101140008F5F80931E011092850010928400809121
:101150001E018E3160F081E08093200180931F0199
:10116000EFE6F0E080818D7F808310928100FF9117
:10117000EF918F910F900FBE0F901F901895CF9306
:10118000DF93C82FD62F0E94590A8C2F90E0880F2A
:10119000991F8E770E94610A8D2F0E94610A0E941A
:1011A0005D0ADF91CF910895CF93C82F0E94590A0D
:1011B0008C2F90E0880F991F8E7780680E94610ABB
:1011C00080E00E94610AC82F0E945D0A8C2FCF9197
:1011D00008954F925F926F927F928F929F92AF92FB
:1011E000BF92CF92DF92EF92FF920F931F93CF9314
:1011F000DF93D82F7B01C42F59018C3029F08E301A
:1012000061F0912C812C10C00F2EF0E39F2EF02D59
:101210000F2EF7E78F2EF02D07C06894992494F8CD
:101220000F2EF2E18F2EF02D84E00E94D408682F5B
:101230006F7784E00E94BF088AE00E94D408682F7C
:1012400060688AE00E94BF0860E081E00E94BF08F9
:10125000412C512C32010CC0F701E40DF51D6081C9
:1012600089E00E94BF088FEF481A580A680A780A76
:101270008C2F90E0A0E0B0E0481659066A067B0685
:1012800058F36D2F81E00E94BF08DC3041F48DE0FF
:101290000E94D408682F60688DE00E94BF080F2E5E
:1012A000F0EDCF2EF7E0DF2EE12CF12CF02D84E0D5
:1012B0000E94D408C82FE1E0CE1AD108E108F10855
:1012C00029F080FD03C0892D8C2389F38DE00E94D5
:1012D000D408682F6F778DE00E94BF08CD28CE28F4
:1012E000CF2809F460C086E00E94D4088B7109F011
:1012F0005CC0C821C0FD02C0C1E001C0C2E0DC305A
:1013000009F054C08AE00E94D408D82F8CE00E94D3
:10131000D408282F2770A9F08D2F90E00197880F0F
:10132000991F880F991F880F991F820F911D092EF1
:10133000000CAA0BBB0BF80180839183A283B383BB
:1013400011C08D2F90E0880F991F880F991F880F6B
:10135000991F092E000CAA0BBB0BF8018083918307
:10136000A283B383D11101C0D1E0D13108F0D0E123
:10137000C12CD12C76010DC085010C0D1D1D89E0FD
:101380000E94D408F8018083FFEFCF1ADF0AEF0A2A
:10139000FF0A8D2F90E0A0E0B0E0C816D906EA065B
:1013A000FB0650F303C0C3E001C0C3E08C2FDF9104
:1013B000CF911F910F91FF90EF90DF90CF90BF9052
:1013C000AF909F908F907F906F905F904F90089517
:1013D000EF92FF920F931F93CF93DF9300D000D033
:1013E000CDB7DEB7182F7B0167E08DE00E94BF0804
:1013F000F70110838E010F5F1F4F970141E0B70186
:101400008CE00E94E908813051F449815A816B8156
:101410007C81403151056105710519F403C083E0F9
:1014200001C083E00F900F900F900F90DF91CF914C
:101430001F910F91FF90EF900895EF92FF920F93FD
:101440001F93CF93DF9300D000D0CDB7DEB77C01E0
:1014500060E08DE00E94BF0883E9F701808380E2AD
:1014600081838E010F5F1F4F970142E0B7018CE02F
:101470000E94E908813091F407C0F701E90FF11DDE
:10148000308123279F5F02C020E090E09430A8F3D2
:10149000F701E90FF11D9081291383E00F900F9060
:1014A0000F900F90DF91CF911F910F91FF90EF90D0
:1014B000089585B18B7F85B9089585B1846085B91C
:1014C00008958EBD0DB407FEFDCF8EB50895109220
:1014D0002901EEE6F0E0808182608083789416BC7A
:1014E0008CE787BD84B58C7F84BD84B5826084BD64
:1014F00085B5887F85BD85B5836085BD0895EEE699
:10150000F0E080818D7F808308955058BB27AA2703
:101510000E949D0A0C94AA0B0E949C0B38F00E941A
:10152000A30B20F039F49F3F19F426F40C94990B87
:101530000EF4E095E7FB0C94930BE92F0E94BB0B94
:1015400058F3BA17620773078407950720F079F4F8
:10155000A6F50C94DD0B0EF4E0950B2EBA2FA02D02
:101560000B01B90190010C01CA01A0011124FF2750
:10157000591B99F0593F50F4503E68F11A16F0404B
:10158000A22F232F342F4427585FF3CF469537954A
:101590002795A795F0405395C9F77EF41F16BA0B0F
:1015A000620B730B840BBAF09150A1F0FF0FBB1FBD
:1015B000661F771F881FC2F70EC0BA0F621F731F06
:1015C000841F48F4879577956795B795F7959E3F63
:1015D00008F0B0CF9395880F08F09927EE0F9795F4
:1015E000879508950E94060B0C94AA0B0E94A30BEA
:1015F00058F00E949C0B40F029F45F3F29F00C94B6
:10160000930B51110C94DE0B0C94990B0E94BB0BA5
:1016100068F39923B1F3552391F3951B550BBB2721
:10162000AA2762177307840738F09F5F5F4F220F66
:10163000331F441FAA1FA9F335D00E2E3AF0E0E85D
:1016400032D091505040E695001CCAF72BD0FE2FA7
:1016500029D0660F771F881FBB1F2617370748073B
:10166000AB07B0E809F0BB0B802DBF01FF279358F3
:101670005F4F3AF09E3F510578F00C94930B0C9419
:10168000DE0B5F3FE4F3983ED4F38695779567953C
:10169000B795F7959F5FC9F7880F911D9695879528
:1016A00097F90895E1E0660F771F881FBB1F621747
:1016B00073078407BA0720F0621B730B840BBA0B05
:1016C000EE1F88F7E09508950E94C30B88F09F579E
:1016D00098F0B92F9927B751B0F0E1F0660F771F56
:1016E000881F991F1AF0BA95C9F714C0B13091F04C
:1016F0000E94DD0BB1E008950C94DD0B672F782F6D
:101700008827B85F39F0B93FCCF386957795679510
:10171000B395D9F73EF490958095709561957F4F7C
:101720008F4F9F4F089597F99F6780E870E060E0C2
:1017300008959FEF80EC089500240A94161617066A
:1017400018060906089500240A94121613061406B2
:1017500005060895092E0394000C11F4882352F015
:10176000BB0F40F4BF2B11F460FF04C06F5F7F4FCD
:101770008F4F9F4F089557FD9058440F551F59F0B4
:101780005F3F71F04795880F97FB991F61F09F3F6E
:1017900079F087950895121613061406551FF2CF97
:1017A0004695F1DF08C0161617061806991FF1CFE7
:1017B00086957105610508940895E894BB2766270E
:1017C0007727CB0197F908950E94560C08F48FEF04
:1017D00008950E94FC0B0C94AA0B0E949C0B38F0FD
:1017E0000E94A30B20F0952311F00C94930B0C9402
:1017F000990B11240C94DE0B0E94BB0B70F3959F88
:10180000C1F3950F50E0551F629FF001729FBB27F7
:10181000F00DB11D639FAA27F00DB11DAA1F649F93
:101820006627B00DA11D661F829F2227B00DA11D46
:10183000621F739FB00DA11D621F839FA00D611DCC
:10184000221F749F3327A00D611D231F849F600DED
:10185000211D822F762F6A2F11249F5750409AF016
:10186000F1F088234AF0EE0FFF1FBB1F661F771FA2
:10187000881F91505040A9F79E3F510580F00C946D
:10188000930B0C94DE0B5F3FE4F3983ED4F3869504
:1018900077956795B795F795E7959F5FC1F7FE2B0D
:1018A000880F911D9695879597F90895990F0008CF
:1018B000550FAA0BE0E8FEEF16161706E807F90722
:1018C000C0F012161306E407F50798F0621B730BBD
:1018D000840B950B39F40A2661F0232B242B252B3E
:1018E00021F408950A2609F4A140A6958FEF811DE1
:1018F000811D08950F931F93CF93DF93869F8001DF
:10190000879F100D969F100D1124C8010E94960C00
:10191000EC01009729F0A80160E070E00E94B70D8B
:10192000CE01DF91CF911F910F9108950F931F93D7
:10193000CF93DF938230910510F482E090E0E09144
:101940002C01F0912D0120E030E0A0E0B0E03097D4
:1019500019F1408151810281138148175907C8F05C
:101960008417950769F4109731F012960C9312972B
:1019700013961C9327C000932C0110932D0122C0B5
:101980002115310519F04217530718F49A01BD01CA
:10199000EF01DF01F801DBCF21153105F9F0281B3C
:1019A000390B2430310580F48A819B8161157105E2
:1019B00021F0FB019383828304C090932D018093D7
:1019C0002C01FE01329644C0FE01E20FF31F819309
:1019D000919322503109398328833AC020912A01FA
:1019E00030912B01232B41F420910201309103010E
:1019F00030932B0120932A012091000130910101A5
:101A00002115310541F42DB73EB7409104015091A5
:101A10000501241B350BE0912A01F0912B01E217FF
:101A2000F307A0F42E1B3F0B2817390778F0AC0101
:101A30004E5F5F4F2417350748F04E0F5F1F5093DE
:101A40002B0140932A018193919302C0E0E0F0E0E2
:101A5000CF01DF91CF911F910F910895CF93DF9325
:101A6000009709F481C0FC01329713821282A09181
:101A70002C01B0912D01109781F420813181820FCA
:101A8000931F20912A0130912B012817390751F516
:101A9000F0932B01E0932A0167C0ED0120E030E0D4
:101AA000CE17DF0740F44A815B819E014115510545
:101AB000F1F0EA01F5CFD383C28340815181840FD5
:101AC000951FC817D90759F488819981840F951FEC
:101AD0000296918380838A819B81938382832115DF
:101AE000310529F4F0932D01E0932C013DC0E9016B
:101AF000FB83EA8349915991C40FD51FEC17FD0769
:101B000061F480819181840F951F0296E901998388
:101B10008883828193819B838A83E0E0F0E0129640
:101B20008D919C911397009719F0FD01DC01F7CF7F
:101B30008D919C9111979D012E5F3F4F820F931FB6
:101B400020912A0130912B012817390769F4309729
:101B500029F410922D0110922C0102C013821282DE
:101B6000B0932B01A0932A01DF91CF910895DC015E
:101B700001C06D9341505040E0F70895F894FFCFB5
:101B800000002E01200030313233343536373839F9
:041B90002A302300D4
:00000001FF
